{"abi":[{"type":"constructor","inputs":[{"name":"callback","type":"address","internalType":"address"}],"stateMutability":"payable"},{"type":"receive","stateMutability":"payable"},{"type":"function","name":"acknowledgeSwap","inputs":[{"name":"_swapId","type":"bytes32","internalType":"bytes32"},{"name":"_initiator","type":"address","internalType":"address"},{"name":"_sourceTokenAddress","type":"address","internalType":"address"},{"name":"_sourceAmount","type":"uint256","internalType":"uint256"},{"name":"_destinationTokenAddress","type":"address","internalType":"address"},{"name":"_destinationAmount","type":"uint256","internalType":"uint256"},{"name":"_receivingAddress","type":"address","internalType":"address"},{"name":"_timelock","type":"uint256","internalType":"uint256"}],"outputs":[],"stateMutability":"nonpayable"},{"type":"function","name":"completeSwap","inputs":[{"name":"","type":"address","internalType":"address"},{"name":"_swapId","type":"bytes32","internalType":"bytes32"}],"outputs":[],"stateMutability":"nonpayable"},{"type":"function","name":"coverDebt","inputs":[],"outputs":[],"stateMutability":"nonpayable"},{"type":"function","name":"depositTokens","inputs":[{"name":"_swapId","type":"bytes32","internalType":"bytes32"}],"outputs":[],"stateMutability":"nonpayable"},{"type":"function","name":"pay","inputs":[{"name":"amount","type":"uint256","internalType":"uint256"}],"outputs":[],"stateMutability":"nonpayable"},{"type":"function","name":"swaps","inputs":[{"name":"","type":"bytes32","internalType":"bytes32"}],"outputs":[{"name":"swapId","type":"bytes32","internalType":"bytes32"},{"name":"initiator","type":"address","internalType":"address"},{"name":"acceptor","type":"address","internalType":"address"},{"name":"sourceTokenAddress","type":"address","internalType":"address"},{"name":"sourceAmount","type":"uint256","internalType":"uint256"},{"name":"destinationTokenAddress","type":"address","internalType":"address"},{"name":"destinationAmount","type":"uint256","internalType":"uint256"},{"name":"receivingAddress","type":"address","internalType":"address"},{"name":"timelock","type":"uint256","internalType":"uint256"},{"name":"isAcknowledged","type":"bool","internalType":"bool"},{"name":"isDeposited","type":"bool","internalType":"bool"},{"name":"isCompleted","type":"bool","internalType":"bool"}],"stateMutability":"view"},{"type":"event","name":"SwapAcknowledged","inputs":[{"name":"swapId","type":"bytes32","indexed":true,"internalType":"bytes32"},{"name":"acceptor","type":"address","indexed":true,"internalType":"address"},{"name":"receiver","type":"address","indexed":true,"internalType":"address"}],"anonymous":false},{"type":"event","name":"SwapCancelled","inputs":[{"name":"swapId","type":"bytes32","indexed":true,"internalType":"bytes32"},{"name":"acceptor","type":"address","indexed":true,"internalType":"address"}],"anonymous":false},{"type":"event","name":"SwapCompleted","inputs":[{"name":"swapId","type":"bytes32","indexed":true,"internalType":"bytes32"},{"name":"initiator","type":"address","indexed":true,"internalType":"address"},{"name":"acceptor","type":"address","indexed":true,"internalType":"address"},{"name":"recipient","type":"address","indexed":false,"internalType":"address"},{"name":"amount","type":"uint256","indexed":false,"internalType":"uint256"}],"anonymous":false},{"type":"event","name":"TokensDeposited","inputs":[{"name":"swapId","type":"bytes32","indexed":true,"internalType":"bytes32"},{"name":"acceptor","type":"address","indexed":true,"internalType":"address"},{"name":"amount","type":"uint256","indexed":false,"internalType":"uint256"}],"anonymous":false}],"bytecode":{"object":"0x6080604052604051611ae7380380611ae783398181016040528101906100259190610170565b803360025f6101000a81548173ffffffffffffffffffffffffffffffffffffffff021916908373ffffffffffffffffffffffffffffffffffffffff160217905550805f5f6101000a81548173ffffffffffffffffffffffffffffffffffffffff021916908373ffffffffffffffffffffffffffffffffffffffff1602179055506100b4816100bb60201b60201c565b505061019b565b6001805f8373ffffffffffffffffffffffffffffffffffffffff1673ffffffffffffffffffffffffffffffffffffffff1681526020019081526020015f205f6101000a81548160ff02191690831515021790555050565b5f5ffd5b5f73ffffffffffffffffffffffffffffffffffffffff82169050919050565b5f61013f82610116565b9050919050565b61014f81610135565b8114610159575f5ffd5b50565b5f8151905061016a81610146565b92915050565b5f6020828403121561018557610184610112565b5b5f6101928482850161015c565b91505092915050565b61193f806101a85f395ff3fe608060405260043610610058575f3560e01c80632713ee78146100635780635b676b771461008b5780637a90b990146100b35780639f4a8b0b146100c9578063c290d691146100f1578063eb84e7f2146101195761005f565b3661005f57005b5f5ffd5b34801561006e575f5ffd5b506100896004803603810190610084919061101e565b610160565b005b348015610096575f5ffd5b506100b160048036038101906100ac91906110cf565b610562565b005b3480156100be575f5ffd5b506100c761084b565b005b3480156100d4575f5ffd5b506100ef60048036038101906100ea91906110fa565b610913565b005b3480156100fc575f5ffd5b5061011760048036038101906101129190611138565b610c60565b005b348015610124575f5ffd5b5061013f600480360381019061013a91906110cf565b610cf6565b6040516101579c9b9a999897969594939291906111aa565b60405180910390f35b5f5f1b60035f8a81526020019081526020015f205f0154146101b7576040517f08c379a00000000000000000000000000000000000000000000000000000000081526004016101ae906112bc565b60405180910390fd5b8042106101f9576040517f08c379a00000000000000000000000000000000000000000000000000000000081526004016101f090611324565b60405180910390fd5b5f831161023b576040517f08c379a00000000000000000000000000000000000000000000000000000000081526004016102329061138c565b60405180910390fd5b6040518061018001604052808981526020018873ffffffffffffffffffffffffffffffffffffffff1681526020013373ffffffffffffffffffffffffffffffffffffffff1681526020018773ffffffffffffffffffffffffffffffffffffffff1681526020018681526020018573ffffffffffffffffffffffffffffffffffffffff1681526020018481526020018373ffffffffffffffffffffffffffffffffffffffff1681526020018281526020016001151581526020015f151581526020015f151581525060035f8a81526020019081526020015f205f820151815f01556020820151816001015f6101000a81548173ffffffffffffffffffffffffffffffffffffffff021916908373ffffffffffffffffffffffffffffffffffffffff1602179055506040820151816002015f6101000a81548173ffffffffffffffffffffffffffffffffffffffff021916908373ffffffffffffffffffffffffffffffffffffffff1602179055506060820151816003015f6101000a81548173ffffffffffffffffffffffffffffffffffffffff021916908373ffffffffffffffffffffffffffffffffffffffff1602179055506080820151816004015560a0820151816005015f6101000a81548173ffffffffffffffffffffffffffffffffffffffff021916908373ffffffffffffffffffffffffffffffffffffffff16021790555060c0820151816006015560e0820151816007015f6101000a81548173ffffffffffffffffffffffffffffffffffffffff021916908373ffffffffffffffffffffffffffffffffffffffff1602179055506101008201518160080155610120820151816009015f6101000a81548160ff0219169083151502179055506101408201518160090160016101000a81548160ff0219169083151502179055506101608201518160090160026101000a81548160ff0219169083151502179055509050508173ffffffffffffffffffffffffffffffffffffffff163373ffffffffffffffffffffffffffffffffffffffff16897faee1ad0ac63ac6c2226b014e31be38087ec2ba09fe3d48d14b7fffa5f170f1fc60405160405180910390a45050505050505050565b5f60035f8381526020019081526020015f2090503373ffffffffffffffffffffffffffffffffffffffff16816002015f9054906101000a900473ffffffffffffffffffffffffffffffffffffffff1673ffffffffffffffffffffffffffffffffffffffff1614610607576040517f08c379a00000000000000000000000000000000000000000000000000000000081526004016105fe906113f4565b60405180910390fd5b806009015f9054906101000a900460ff16610657576040517f08c379a000000000000000000000000000000000000000000000000000000000815260040161064e9061145c565b60405180910390fd5b8060090160019054906101000a900460ff16156106a9576040517f08c379a00000000000000000000000000000000000000000000000000000000081526004016106a0906114c4565b60405180910390fd5b806008015442106106ef576040517f08c379a00000000000000000000000000000000000000000000000000000000081526004016106e690611324565b60405180910390fd5b5f816005015f9054906101000a900473ffffffffffffffffffffffffffffffffffffffff1690508073ffffffffffffffffffffffffffffffffffffffff166323b872dd333085600601546040518463ffffffff1660e01b8152600401610757939291906114e2565b6020604051808303815f875af1158015610773573d5f5f3e3d5ffd5b505050506040513d601f19601f820116820180604052508101906107979190611541565b6107d6576040517f08c379a00000000000000000000000000000000000000000000000000000000081526004016107cd906115b6565b60405180910390fd5b60018260090160016101000a81548160ff0219169083151502179055503373ffffffffffffffffffffffffffffffffffffffff16837fa5acfcde5118075b17c34a71ac1feff954a6696141900041d1da05095063ae65846006015460405161083e91906115d4565b60405180910390a3505050565b5f5f5f9054906101000a900473ffffffffffffffffffffffffffffffffffffffff1673ffffffffffffffffffffffffffffffffffffffff16639b6c56ec306040518263ffffffff1660e01b81526004016108a591906115ed565b602060405180830381865afa1580156108c0573d5f5f3e3d5ffd5b505050506040513d601f19601f820116820180604052508101906108e4919061161a565b90506109105f5f9054906101000a900473ffffffffffffffffffffffffffffffffffffffff1682610e13565b50565b5f60035f8381526020019081526020015f209050806009015f9054906101000a900460ff16610977576040517f08c379a000000000000000000000000000000000000000000000000000000000815260040161096e9061145c565b60405180910390fd5b8060090160019054906101000a900460ff166109c8576040517f08c379a00000000000000000000000000000000000000000000000000000000081526004016109bf9061168f565b60405180910390fd5b8060090160029054906101000a900460ff1615610a1a576040517f08c379a0000000000000000000000000000000000000000000000000000000008152600401610a11906116f7565b60405180910390fd5b80600801544210610a60576040517f08c379a0000000000000000000000000000000000000000000000000000000008152600401610a5790611324565b60405180910390fd5b60018160090160026101000a81548160ff0219169083151502179055505f816005015f9054906101000a900473ffffffffffffffffffffffffffffffffffffffff1690508073ffffffffffffffffffffffffffffffffffffffff1663a9059cbb836007015f9054906101000a900473ffffffffffffffffffffffffffffffffffffffff1684600601546040518363ffffffff1660e01b8152600401610b06929190611715565b6020604051808303815f875af1158015610b22573d5f5f3e3d5ffd5b505050506040513d601f19601f82011682018060405250810190610b469190611541565b610b85576040517f08c379a0000000000000000000000000000000000000000000000000000000008152600401610b7c906115b6565b60405180910390fd5b816002015f9054906101000a900473ffffffffffffffffffffffffffffffffffffffff1673ffffffffffffffffffffffffffffffffffffffff16826001015f9054906101000a900473ffffffffffffffffffffffffffffffffffffffff1673ffffffffffffffffffffffffffffffffffffffff16847f642bb5328b5f795ff00ec9a0d86af42b2af241091a293db50d4c1a8d3233f9cc856007015f9054906101000a900473ffffffffffffffffffffffffffffffffffffffff168660060154604051610c52929190611715565b60405180910390a450505050565b60015f3373ffffffffffffffffffffffffffffffffffffffff1673ffffffffffffffffffffffffffffffffffffffff1681526020019081526020015f205f9054906101000a900460ff16610ce9576040517f08c379a0000000000000000000000000000000000000000000000000000000008152600401610ce090611786565b60405180910390fd5b610cf33382610e13565b50565b6003602052805f5260405f205f91509050805f015490806001015f9054906101000a900473ffffffffffffffffffffffffffffffffffffffff1690806002015f9054906101000a900473ffffffffffffffffffffffffffffffffffffffff1690806003015f9054906101000a900473ffffffffffffffffffffffffffffffffffffffff1690806004015490806005015f9054906101000a900473ffffffffffffffffffffffffffffffffffffffff1690806006015490806007015f9054906101000a900473ffffffffffffffffffffffffffffffffffffffff1690806008015490806009015f9054906101000a900460ff16908060090160019054906101000a900460ff16908060090160029054906101000a900460ff1690508c565b80471015610e56576040517f08c379a0000000000000000000000000000000000000000000000000000000008152600401610e4d906117ee565b60405180910390fd5b5f811115610f56575f8273ffffffffffffffffffffffffffffffffffffffff16825f67ffffffffffffffff811115610e9157610e9061180c565b5b6040519080825280601f01601f191660200182016040528015610ec35781602001600182028036833780820191505090505b50604051610ed1919061188b565b5f6040518083038185875af1925050503d805f8114610f0b576040519150601f19603f3d011682016040523d82523d5f602084013e610f10565b606091505b5050905080610f54576040517f08c379a0000000000000000000000000000000000000000000000000000000008152600401610f4b906118eb565b60405180910390fd5b505b5050565b5f5ffd5b5f819050919050565b610f7081610f5e565b8114610f7a575f5ffd5b50565b5f81359050610f8b81610f67565b92915050565b5f73ffffffffffffffffffffffffffffffffffffffff82169050919050565b5f610fba82610f91565b9050919050565b610fca81610fb0565b8114610fd4575f5ffd5b50565b5f81359050610fe581610fc1565b92915050565b5f819050919050565b610ffd81610feb565b8114611007575f5ffd5b50565b5f8135905061101881610ff4565b92915050565b5f5f5f5f5f5f5f5f610100898b03121561103b5761103a610f5a565b5b5f6110488b828c01610f7d565b98505060206110598b828c01610fd7565b975050604061106a8b828c01610fd7565b965050606061107b8b828c0161100a565b955050608061108c8b828c01610fd7565b94505060a061109d8b828c0161100a565b93505060c06110ae8b828c01610fd7565b92505060e06110bf8b828c0161100a565b9150509295985092959890939650565b5f602082840312156110e4576110e3610f5a565b5b5f6110f184828501610f7d565b91505092915050565b5f5f604083850312156111105761110f610f5a565b5b5f61111d85828601610fd7565b925050602061112e85828601610f7d565b9150509250929050565b5f6020828403121561114d5761114c610f5a565b5b5f61115a8482850161100a565b91505092915050565b61116c81610f5e565b82525050565b61117b81610fb0565b82525050565b61118a81610feb565b82525050565b5f8115159050919050565b6111a481611190565b82525050565b5f610180820190506111be5f83018f611163565b6111cb602083018e611172565b6111d8604083018d611172565b6111e5606083018c611172565b6111f2608083018b611181565b6111ff60a083018a611172565b61120c60c0830189611181565b61121960e0830188611172565b611227610100830187611181565b61123561012083018661119b565b61124361014083018561119b565b61125161016083018461119b565b9d9c50505050505050505050505050565b5f82825260208201905092915050565b7f5377617020616c72656164792061636b6e6f776c6564676564000000000000005f82015250565b5f6112a6601983611262565b91506112b182611272565b602082019050919050565b5f6020820190508181035f8301526112d38161129a565b9050919050565b7f53776170206861732065787069726564000000000000000000000000000000005f82015250565b5f61130e601083611262565b9150611319826112da565b602082019050919050565b5f6020820190508181035f83015261133b81611302565b9050919050565b7f416d6f756e74206d7573742062652067726561746572207468616e20300000005f82015250565b5f611376601d83611262565b915061138182611342565b602082019050919050565b5f6020820190508181035f8301526113a38161136a565b9050919050565b7f4e6f74207468652073776170206163636570746f7200000000000000000000005f82015250565b5f6113de601583611262565b91506113e9826113aa565b602082019050919050565b5f6020820190508181035f83015261140b816113d2565b9050919050565b7f53776170206e6f742061636b6e6f776c656467656400000000000000000000005f82015250565b5f611446601583611262565b915061145182611412565b602082019050919050565b5f6020820190508181035f8301526114738161143a565b9050919050565b7f546f6b656e7320616c7265616479206465706f736974656400000000000000005f82015250565b5f6114ae601883611262565b91506114b98261147a565b602082019050919050565b5f6020820190508181035f8301526114db816114a2565b9050919050565b5f6060820190506114f55f830186611172565b6115026020830185611172565b61150f6040830184611181565b949350505050565b61152081611190565b811461152a575f5ffd5b50565b5f8151905061153b81611517565b92915050565b5f6020828403121561155657611555610f5a565b5b5f6115638482850161152d565b91505092915050565b7f546f6b656e207472616e73666572206661696c656400000000000000000000005f82015250565b5f6115a0601583611262565b91506115ab8261156c565b602082019050919050565b5f6020820190508181035f8301526115cd81611594565b9050919050565b5f6020820190506115e75f830184611181565b92915050565b5f6020820190506116005f830184611172565b92915050565b5f8151905061161481610ff4565b92915050565b5f6020828403121561162f5761162e610f5a565b5b5f61163c84828501611606565b91505092915050565b7f546f6b656e73206e6f74206465706f73697465640000000000000000000000005f82015250565b5f611679601483611262565b915061168482611645565b602082019050919050565b5f6020820190508181035f8301526116a68161166d565b9050919050565b7f5377617020616c726561647920636f6d706c65746564000000000000000000005f82015250565b5f6116e1601683611262565b91506116ec826116ad565b602082019050919050565b5f6020820190508181035f83015261170e816116d5565b9050919050565b5f6040820190506117285f830185611172565b6117356020830184611181565b9392505050565b7f417574686f72697a65642073656e646572206f6e6c79000000000000000000005f82015250565b5f611770601683611262565b915061177b8261173c565b602082019050919050565b5f6020820190508181035f83015261179d81611764565b9050919050565b7f496e73756666696369656e742066756e647300000000000000000000000000005f82015250565b5f6117d8601283611262565b91506117e3826117a4565b602082019050919050565b5f6020820190508181035f830152611805816117cc565b9050919050565b7f4e487b71000000000000000000000000000000000000000000000000000000005f52604160045260245ffd5b5f81519050919050565b5f81905092915050565b8281835e5f83830152505050565b5f61186582611839565b61186f8185611843565b935061187f81856020860161184d565b80840191505092915050565b5f611896828461185b565b915081905092915050565b7f5472616e73666572206661696c656400000000000000000000000000000000005f82015250565b5f6118d5600f83611262565b91506118e0826118a1565b602082019050919050565b5f6020820190508181035f830152611902816118c9565b905091905056fea2646970667358221220176f4d7d2955f8861196f7900df48d8f64f9fccbbf4a615331e3466408f3e8a164736f6c634300081c0033","linkReferences":{}},"methodIdentifiers":{"acknowledgeSwap(bytes32,address,address,uint256,address,uint256,address,uint256)":"2713ee78","completeSwap(address,bytes32)":"9f4a8b0b","coverDebt()":"7a90b990","depositTokens(bytes32)":"5b676b77","pay(uint256)":"c290d691","swaps(bytes32)":"eb84e7f2"},"id":5}