{"abi":[{"type":"function","name":"notifyFundsTransferred","inputs":[{"name":"_swapId","type":"bytes32","internalType":"bytes32"},{"name":"_recipient","type":"address","internalType":"address"},{"name":"_amount","type":"uint256","internalType":"uint256"}],"outputs":[],"stateMutability":"nonpayable"},{"type":"function","name":"notifySwapAccepted","inputs":[{"name":"_swapId","type":"bytes32","internalType":"bytes32"},{"name":"_acceptor","type":"address","internalType":"address"}],"outputs":[],"stateMutability":"nonpayable"},{"type":"event","name":"FundsTransferred","inputs":[{"name":"swapId","type":"bytes32","indexed":true,"internalType":"bytes32"},{"name":"recipient","type":"address","indexed":true,"internalType":"address"},{"name":"amount","type":"uint256","indexed":false,"internalType":"uint256"}],"anonymous":false},{"type":"event","name":"SwapAccepted","inputs":[{"name":"swapId","type":"bytes32","indexed":true,"internalType":"bytes32"},{"name":"acceptor","type":"address","indexed":true,"internalType":"address"}],"anonymous":false}],"bytecode":{"object":"0x6080604052348015600e575f5ffd5b506102bc8061001c5f395ff3fe608060405234801561000f575f5ffd5b5060043610610034575f3560e01c80637d889efb14610038578063c48ada5d14610054575b5f5ffd5b610052600480360381019061004d91906101d0565b610070565b005b61006e60048036038101906100699190610220565b6100c4565b005b8173ffffffffffffffffffffffffffffffffffffffff16837f897ee26349e15771790d68ae44c75c59193e7606fe6fad593db09c1b94c1f1f7836040516100b7919061026d565b60405180910390a3505050565b8073ffffffffffffffffffffffffffffffffffffffff16827f5df525a51304cb21087894749f66f582ebecae04bf877a6820a641124d20389560405160405180910390a35050565b5f5ffd5b5f819050919050565b61012281610110565b811461012c575f5ffd5b50565b5f8135905061013d81610119565b92915050565b5f73ffffffffffffffffffffffffffffffffffffffff82169050919050565b5f61016c82610143565b9050919050565b61017c81610162565b8114610186575f5ffd5b50565b5f8135905061019781610173565b92915050565b5f819050919050565b6101af8161019d565b81146101b9575f5ffd5b50565b5f813590506101ca816101a6565b92915050565b5f5f5f606084860312156101e7576101e661010c565b5b5f6101f48682870161012f565b935050602061020586828701610189565b9250506040610216868287016101bc565b9150509250925092565b5f5f604083850312156102365761023561010c565b5b5f6102438582860161012f565b925050602061025485828601610189565b9150509250929050565b6102678161019d565b82525050565b5f6020820190506102805f83018461025e565b9291505056fea264697066735822122032ed3d74792354ee423036f3faf263f7aa0e8e02c5086694b24d40cdaed40a9f64736f6c634300081c0033","linkReferences":{}},"methodIdentifiers":{"notifyFundsTransferred(bytes32,address,uint256)":"7d889efb","notifySwapAccepted(bytes32,address)":"c48ada5d"},"id":0}