{"abi":[{"type":"constructor","inputs":[{"name":"Origin_Contract","type":"address","internalType":"address"}],"stateMutability":"nonpayable"},{"type":"receive","stateMutability":"payable"},{"type":"function","name":"coverDebt","inputs":[],"outputs":[],"stateMutability":"nonpayable"},{"type":"function","name":"pay","inputs":[{"name":"amount","type":"uint256","internalType":"uint256"}],"outputs":[],"stateMutability":"nonpayable"},{"type":"function","name":"react","inputs":[{"name":"log","type":"tuple","internalType":"struct IReactive.LogRecord","components":[{"name":"chain_id","type":"uint256","internalType":"uint256"},{"name":"_contract","type":"address","internalType":"address"},{"name":"topic_0","type":"uint256","internalType":"uint256"},{"name":"topic_1","type":"uint256","internalType":"uint256"},{"name":"topic_2","type":"uint256","internalType":"uint256"},{"name":"topic_3","type":"uint256","internalType":"uint256"},{"name":"data","type":"bytes","internalType":"bytes"},{"name":"block_number","type":"uint256","internalType":"uint256"},{"name":"op_code","type":"uint256","internalType":"uint256"},{"name":"block_hash","type":"uint256","internalType":"uint256"},{"name":"tx_hash","type":"uint256","internalType":"uint256"},{"name":"log_index","type":"uint256","internalType":"uint256"}]}],"outputs":[],"stateMutability":"nonpayable"},{"type":"event","name":"Callback","inputs":[{"name":"chain_id","type":"uint256","indexed":true,"internalType":"uint256"},{"name":"_contract","type":"address","indexed":true,"internalType":"address"},{"name":"gas_limit","type":"uint64","indexed":true,"internalType":"uint64"},{"name":"payload","type":"bytes","indexed":false,"internalType":"bytes"}],"anonymous":false},{"type":"event","name":"SubscriptionStatus","inputs":[{"name":"success","type":"bool","indexed":false,"internalType":"bool"}],"anonymous":false}],"bytecode":{"object":"0x60a060405234801561000f575f5ffd5b506040516111bf3803806111bf833981810160405281019061003191906104cd565b62ffffff600260016101000a81548173ffffffffffffffffffffffffffffffffffffffff021916908373ffffffffffffffffffffffffffffffffffffffff16021790555f5f6101000a81548173ffffffffffffffffffffffffffffffffffffffff021916908373ffffffffffffffffffffffffffffffffffffffff1602179055506100c462ffffff6103f260201b60201c565b6100d261044960201b60201c565b8073ffffffffffffffffffffffffffffffffffffffff1660808173ffffffffffffffffffffffffffffffffffffffff168152505060025f9054906101000a900460ff166103ec57600260019054906101000a900473ffffffffffffffffffffffffffffffffffffffff1673ffffffffffffffffffffffffffffffffffffffff16635a6aced062512578837fa5acfcde5118075b17c34a71ac1feff954a6696141900041d1da05095063ae657fa65f96fc951c35ead38878e0f0b7a3c744a6f5ccc1476b313353ce31712313ad807fa65f96fc951c35ead38878e0f0b7a3c744a6f5ccc1476b313353ce31712313ad6040518763ffffffff1660e01b81526004016101e19695949392919061051f565b5f604051808303815f87803b1580156101f8575f5ffd5b505af1925050508015610209575060015b610249577f83cba67e8dead1553e411030d0cfd9f3cc7ee38c8ac929042d197bbf118fa6bf5f60405161023c9190610598565b60405180910390a1610282565b7f83cba67e8dead1553e411030d0cfd9f3cc7ee38c8ac929042d197bbf118fa6bf60016040516102799190610598565b60405180910390a15b600260019054906101000a900473ffffffffffffffffffffffffffffffffffffffff1673ffffffffffffffffffffffffffffffffffffffff16635a6aced062512578837faee1ad0ac63ac6c2226b014e31be38087ec2ba09fe3d48d14b7fffa5f170f1fc7fa65f96fc951c35ead38878e0f0b7a3c744a6f5ccc1476b313353ce31712313ad807fa65f96fc951c35ead38878e0f0b7a3c744a6f5ccc1476b313353ce31712313ad6040518763ffffffff1660e01b815260040161034a9695949392919061051f565b5f604051808303815f87803b158015610361575f5ffd5b505af1925050508015610372575060015b6103b2577f83cba67e8dead1553e411030d0cfd9f3cc7ee38c8ac929042d197bbf118fa6bf5f6040516103a59190610598565b60405180910390a16103eb565b7f83cba67e8dead1553e411030d0cfd9f3cc7ee38c8ac929042d197bbf118fa6bf60016040516103e29190610598565b60405180910390a15b5b506105b1565b6001805f8373ffffffffffffffffffffffffffffffffffffffff1673ffffffffffffffffffffffffffffffffffffffff1681526020019081526020015f205f6101000a81548160ff02191690831515021790555050565b5f62ffffff3b90505f811460025f6101000a81548160ff02191690831515021790555050565b5f5ffd5b5f73ffffffffffffffffffffffffffffffffffffffff82169050919050565b5f61049c82610473565b9050919050565b6104ac81610492565b81146104b6575f5ffd5b50565b5f815190506104c7816104a3565b92915050565b5f602082840312156104e2576104e161046f565b5b5f6104ef848285016104b9565b91505092915050565b5f819050919050565b61050a816104f8565b82525050565b61051981610492565b82525050565b5f60c0820190506105325f830189610501565b61053f6020830188610510565b61054c6040830187610501565b6105596060830186610501565b6105666080830185610501565b61057360a0830184610501565b979650505050505050565b5f8115159050919050565b6105928161057e565b82525050565b5f6020820190506105ab5f830184610589565b92915050565b608051610bef6105d05f395f818161014001526103200152610bef5ff3fe608060405260043610610037575f3560e01c80630d152c2c146100425780637a90b9901461006a578063c290d691146100805761003e565b3661003e57005b5f5ffd5b34801561004d575f5ffd5b5061006860048036038101906100639190610665565b6100a8565b005b348015610075575f5ffd5b5061007e610395565b005b34801561008b575f5ffd5b506100a660048036038101906100a191906106df565b61045d565b005b60025f9054906101000a900460ff166100f6576040517f08c379a00000000000000000000000000000000000000000000000000000000081526004016100ed90610764565b60405180910390fd5b62512578815f01351461013e576040517f08c379a0000000000000000000000000000000000000000000000000000000008152600401610135906107cc565b60405180910390fd5b7f000000000000000000000000000000000000000000000000000000000000000073ffffffffffffffffffffffffffffffffffffffff168160200160208101906101889190610844565b73ffffffffffffffffffffffffffffffffffffffff16146101de576040517f08c379a00000000000000000000000000000000000000000000000000000000081526004016101d5906108b9565b60405180910390fd5b7faee1ad0ac63ac6c2226b014e31be38087ec2ba09fe3d48d14b7fffa5f170f1fc81604001350361024e578060a0013560035f6101000a81548173ffffffffffffffffffffffffffffffffffffffff021916908373ffffffffffffffffffffffffffffffffffffffff1602179055505b7fa5acfcde5118075b17c34a71ac1feff954a6696141900041d1da05095063ae65816040013503610392575f5f82606001356040516024016102919291906108f5565b6040516020818303038152906040527f9f4a8b0b000000000000000000000000000000000000000000000000000000007bffffffffffffffffffffffffffffffffffffffffffffffffffffffff19166020820180517bffffffffffffffffffffffffffffffffffffffffffffffffffffffff83818316178352505050509050622dc6c067ffffffffffffffff167f000000000000000000000000000000000000000000000000000000000000000073ffffffffffffffffffffffffffffffffffffffff16625125787f8dd725fa9d6cd150017ab9e60318d40616439424e2fade9c1c58854950917dfc84604051610388919061098c565b60405180910390a4505b50565b5f5f5f9054906101000a900473ffffffffffffffffffffffffffffffffffffffff1673ffffffffffffffffffffffffffffffffffffffff16639b6c56ec306040518263ffffffff1660e01b81526004016103ef91906109ac565b602060405180830381865afa15801561040a573d5f5f3e3d5ffd5b505050506040513d601f19601f8201168201806040525081019061042e91906109d9565b905061045a5f5f9054906101000a900473ffffffffffffffffffffffffffffffffffffffff16826104f3565b50565b60015f3373ffffffffffffffffffffffffffffffffffffffff1673ffffffffffffffffffffffffffffffffffffffff1681526020019081526020015f205f9054906101000a900460ff166104e6576040517f08c379a00000000000000000000000000000000000000000000000000000000081526004016104dd90610a4e565b60405180910390fd5b6104f033826104f3565b50565b80471015610536576040517f08c379a000000000000000000000000000000000000000000000000000000000815260040161052d90610ab6565b60405180910390fd5b5f811115610636575f8273ffffffffffffffffffffffffffffffffffffffff16825f67ffffffffffffffff81111561057157610570610ad4565b5b6040519080825280601f01601f1916602001820160405280156105a35781602001600182028036833780820191505090505b506040516105b19190610b3b565b5f6040518083038185875af1925050503d805f81146105eb576040519150601f19603f3d011682016040523d82523d5f602084013e6105f0565b606091505b5050905080610634576040517f08c379a000000000000000000000000000000000000000000000000000000000815260040161062b90610b9b565b60405180910390fd5b505b5050565b5f5ffd5b5f5ffd5b5f5ffd5b5f610180828403121561065c5761065b610642565b5b81905092915050565b5f6020828403121561067a5761067961063a565b5b5f82013567ffffffffffffffff8111156106975761069661063e565b5b6106a384828501610646565b91505092915050565b5f819050919050565b6106be816106ac565b81146106c8575f5ffd5b50565b5f813590506106d9816106b5565b92915050565b5f602082840312156106f4576106f361063a565b5b5f610701848285016106cb565b91505092915050565b5f82825260208201905092915050565b7f564d206f6e6c79000000000000000000000000000000000000000000000000005f82015250565b5f61074e60078361070a565b91506107598261071a565b602082019050919050565b5f6020820190508181035f83015261077b81610742565b9050919050565b7f57726f6e6720636861696e0000000000000000000000000000000000000000005f82015250565b5f6107b6600b8361070a565b91506107c182610782565b602082019050919050565b5f6020820190508181035f8301526107e3816107aa565b9050919050565b5f73ffffffffffffffffffffffffffffffffffffffff82169050919050565b5f610813826107ea565b9050919050565b61082381610809565b811461082d575f5ffd5b50565b5f8135905061083e8161081a565b92915050565b5f602082840312156108595761085861063a565b5b5f61086684828501610830565b91505092915050565b7f57726f6e6720636f6e74726163740000000000000000000000000000000000005f82015250565b5f6108a3600e8361070a565b91506108ae8261086f565b602082019050919050565b5f6020820190508181035f8301526108d081610897565b9050919050565b6108e081610809565b82525050565b6108ef816106ac565b82525050565b5f6040820190506109085f8301856108d7565b61091560208301846108e6565b9392505050565b5f81519050919050565b5f82825260208201905092915050565b8281835e5f83830152505050565b5f601f19601f8301169050919050565b5f61095e8261091c565b6109688185610926565b9350610978818560208601610936565b61098181610944565b840191505092915050565b5f6020820190508181035f8301526109a48184610954565b905092915050565b5f6020820190506109bf5f8301846108d7565b92915050565b5f815190506109d3816106b5565b92915050565b5f602082840312156109ee576109ed61063a565b5b5f6109fb848285016109c5565b91505092915050565b7f417574686f72697a65642073656e646572206f6e6c79000000000000000000005f82015250565b5f610a3860168361070a565b9150610a4382610a04565b602082019050919050565b5f6020820190508181035f830152610a6581610a2c565b9050919050565b7f496e73756666696369656e742066756e647300000000000000000000000000005f82015250565b5f610aa060128361070a565b9150610aab82610a6c565b602082019050919050565b5f6020820190508181035f830152610acd81610a94565b9050919050565b7f4e487b71000000000000000000000000000000000000000000000000000000005f52604160045260245ffd5b5f81905092915050565b5f610b158261091c565b610b1f8185610b01565b9350610b2f818560208601610936565b80840191505092915050565b5f610b468284610b0b565b915081905092915050565b7f5472616e73666572206661696c656400000000000000000000000000000000005f82015250565b5f610b85600f8361070a565b9150610b9082610b51565b602082019050919050565b5f6020820190508181035f830152610bb281610b79565b905091905056fea2646970667358221220891aacebfecf2d6830956cbccf283c901c87389b711fcf4add3079cf2fb61ad664736f6c634300081c0033","linkReferences":{}},"methodIdentifiers":{"coverDebt()":"7a90b990","pay(uint256)":"c290d691","react((uint256,address,uint256,uint256,uint256,uint256,bytes,uint256,uint256,uint256,uint256,uint256))":"0d152c2c"},"id":7}