{"abi":[{"type":"function","name":"depositTokens","inputs":[{"name":"_swapId","type":"bytes32","internalType":"bytes32"}],"outputs":[],"stateMutability":"nonpayable"},{"type":"function","name":"initiateSwap","inputs":[{"name":"_tokenAddress","type":"address","internalType":"address"},{"name":"_amount","type":"uint256","internalType":"uint256"},{"name":"_receivingAddress","type":"address","internalType":"address"},{"name":"_destinationTokenAddress","type":"address","internalType":"address"},{"name":"_expectedAmount","type":"uint256","internalType":"uint256"},{"name":"_timelock","type":"uint256","internalType":"uint256"}],"outputs":[{"name":"","type":"bytes32","internalType":"bytes32"}],"stateMutability":"nonpayable"},{"type":"function","name":"swapRequests","inputs":[{"name":"","type":"bytes32","internalType":"bytes32"}],"outputs":[{"name":"initiator","type":"address","internalType":"address"},{"name":"tokenAddress","type":"address","internalType":"address"},{"name":"amount","type":"uint256","internalType":"uint256"},{"name":"receivingAddress","type":"address","internalType":"address"},{"name":"destinationTokenAddress","type":"address","internalType":"address"},{"name":"expectedAmount","type":"uint256","internalType":"uint256"},{"name":"timelock","type":"uint256","internalType":"uint256"},{"name":"isActive","type":"bool","internalType":"bool"},{"name":"isDeposited","type":"bool","internalType":"bool"},{"name":"swapId","type":"bytes32","internalType":"bytes32"}],"stateMutability":"view"},{"type":"event","name":"SwapCancelled","inputs":[{"name":"swapId","type":"bytes32","indexed":true,"internalType":"bytes32"},{"name":"initiator","type":"address","indexed":true,"internalType":"address"}],"anonymous":false},{"type":"event","name":"SwapCompleted","inputs":[{"name":"swapId","type":"bytes32","indexed":true,"internalType":"bytes32"},{"name":"initiator","type":"address","indexed":true,"internalType":"address"}],"anonymous":false},{"type":"event","name":"SwapInitiated","inputs":[{"name":"swapId","type":"bytes32","indexed":true,"internalType":"bytes32"},{"name":"initiator","type":"address","indexed":true,"internalType":"address"},{"name":"tokenAddress","type":"address","indexed":false,"internalType":"address"},{"name":"amount","type":"uint256","indexed":false,"internalType":"uint256"},{"name":"receivingAddress","type":"address","indexed":false,"internalType":"address"},{"name":"destinationTokenAddress","type":"address","indexed":false,"internalType":"address"},{"name":"expectedAmount","type":"uint256","indexed":false,"internalType":"uint256"},{"name":"timelock","type":"uint256","indexed":false,"internalType":"uint256"}],"anonymous":false},{"type":"event","name":"TokensDeposited","inputs":[{"name":"swapId","type":"bytes32","indexed":true,"internalType":"bytes32"},{"name":"initiator","type":"address","indexed":true,"internalType":"address"},{"name":"amount","type":"uint256","indexed":false,"internalType":"uint256"}],"anonymous":false},{"type":"event","name":"TokensWithdrawn","inputs":[{"name":"swapId","type":"bytes32","indexed":true,"internalType":"bytes32"},{"name":"initiator","type":"address","indexed":true,"internalType":"address"},{"name":"amount","type":"uint256","indexed":false,"internalType":"uint256"}],"anonymous":false}],"bytecode":{"object":"0x6080604052348015600e575f5ffd5b506112f18061001c5f395ff3fe608060405234801561000f575f5ffd5b506004361061003f575f3560e01c80633e029427146100435780635b676b771461007c578063bc1a350d14610098575b5f5ffd5b61005d600480360381019061005891906109b4565b6100c8565b6040516100739a99989796959493929190610a5f565b60405180910390f35b610096600480360381019061009191906109b4565b6101ac565b005b6100b260048036038101906100ad9190610b4d565b610493565b6040516100bf9190610bd6565b60405180910390f35b5f602052805f5260405f205f91509050805f015f9054906101000a900473ffffffffffffffffffffffffffffffffffffffff1690806001015f9054906101000a900473ffffffffffffffffffffffffffffffffffffffff1690806002015490806003015f9054906101000a900473ffffffffffffffffffffffffffffffffffffffff1690806004015f9054906101000a900473ffffffffffffffffffffffffffffffffffffffff1690806005015490806006015490806007015f9054906101000a900460ff16908060070160019054906101000a900460ff1690806008015490508a565b5f5f5f8381526020019081526020015f2090503373ffffffffffffffffffffffffffffffffffffffff16815f015f9054906101000a900473ffffffffffffffffffffffffffffffffffffffff1673ffffffffffffffffffffffffffffffffffffffff161461024f576040517f08c379a000000000000000000000000000000000000000000000000000000000815260040161024690610c49565b60405180910390fd5b806007015f9054906101000a900460ff1661029f576040517f08c379a000000000000000000000000000000000000000000000000000000000815260040161029690610cb1565b60405180910390fd5b8060070160019054906101000a900460ff16156102f1576040517f08c379a00000000000000000000000000000000000000000000000000000000081526004016102e890610d19565b60405180910390fd5b80600601544210610337576040517f08c379a000000000000000000000000000000000000000000000000000000000815260040161032e90610d81565b60405180910390fd5b5f816001015f9054906101000a900473ffffffffffffffffffffffffffffffffffffffff1690508073ffffffffffffffffffffffffffffffffffffffff166323b872dd333085600201546040518463ffffffff1660e01b815260040161039f93929190610d9f565b6020604051808303815f875af11580156103bb573d5f5f3e3d5ffd5b505050506040513d601f19601f820116820180604052508101906103df9190610dfe565b61041e576040517f08c379a000000000000000000000000000000000000000000000000000000000815260040161041590610e73565b60405180910390fd5b60018260070160016101000a81548160ff0219169083151502179055503373ffffffffffffffffffffffffffffffffffffffff16837fa5acfcde5118075b17c34a71ac1feff954a6696141900041d1da05095063ae6584600201546040516104869190610e91565b60405180910390a3505050565b5f5f73ffffffffffffffffffffffffffffffffffffffff168773ffffffffffffffffffffffffffffffffffffffff1603610502576040517f08c379a00000000000000000000000000000000000000000000000000000000081526004016104f990610ef4565b60405180910390fd5b5f8611610544576040517f08c379a000000000000000000000000000000000000000000000000000000000815260040161053b90610f5c565b60405180910390fd5b5f73ffffffffffffffffffffffffffffffffffffffff168573ffffffffffffffffffffffffffffffffffffffff16036105b2576040517f08c379a00000000000000000000000000000000000000000000000000000000081526004016105a990610fc4565b60405180910390fd5b5f73ffffffffffffffffffffffffffffffffffffffff168473ffffffffffffffffffffffffffffffffffffffff1603610620576040517f08c379a000000000000000000000000000000000000000000000000000000000815260040161061790611052565b60405180910390fd5b5f8311610662576040517f08c379a0000000000000000000000000000000000000000000000000000000008152600401610659906110e0565b60405180910390fd5b4282116106a4576040517f08c379a000000000000000000000000000000000000000000000000000000000815260040161069b90611148565b60405180910390fd5b5f33888888888888426040516020016106c49897969594939291906111cb565b6040516020818303038152906040528051906020012090505f6040518061014001604052803373ffffffffffffffffffffffffffffffffffffffff1681526020018a73ffffffffffffffffffffffffffffffffffffffff1681526020018981526020018873ffffffffffffffffffffffffffffffffffffffff1681526020018773ffffffffffffffffffffffffffffffffffffffff1681526020018681526020018581526020016001151581526020015f15158152602001838152509050805f5f8481526020019081526020015f205f820151815f015f6101000a81548173ffffffffffffffffffffffffffffffffffffffff021916908373ffffffffffffffffffffffffffffffffffffffff1602179055506020820151816001015f6101000a81548173ffffffffffffffffffffffffffffffffffffffff021916908373ffffffffffffffffffffffffffffffffffffffff160217905550604082015181600201556060820151816003015f6101000a81548173ffffffffffffffffffffffffffffffffffffffff021916908373ffffffffffffffffffffffffffffffffffffffff1602179055506080820151816004015f6101000a81548173ffffffffffffffffffffffffffffffffffffffff021916908373ffffffffffffffffffffffffffffffffffffffff16021790555060a0820151816005015560c0820151816006015560e0820151816007015f6101000a81548160ff0219169083151502179055506101008201518160070160016101000a81548160ff02191690831515021790555061012082015181600801559050503373ffffffffffffffffffffffffffffffffffffffff16827f9051f2de2060d4362bdcb40b0d5074fa38c8d432c7f3c86eecce900d43a296128b8b8b8b8b8b6040516109669695949392919061125c565b60405180910390a381925050509695505050505050565b5f5ffd5b5f819050919050565b61099381610981565b811461099d575f5ffd5b50565b5f813590506109ae8161098a565b92915050565b5f602082840312156109c9576109c861097d565b5b5f6109d6848285016109a0565b91505092915050565b5f73ffffffffffffffffffffffffffffffffffffffff82169050919050565b5f610a08826109df565b9050919050565b610a18816109fe565b82525050565b5f819050919050565b610a3081610a1e565b82525050565b5f8115159050919050565b610a4a81610a36565b82525050565b610a5981610981565b82525050565b5f61014082019050610a735f83018d610a0f565b610a80602083018c610a0f565b610a8d604083018b610a27565b610a9a606083018a610a0f565b610aa76080830189610a0f565b610ab460a0830188610a27565b610ac160c0830187610a27565b610ace60e0830186610a41565b610adc610100830185610a41565b610aea610120830184610a50565b9b9a5050505050505050505050565b610b02816109fe565b8114610b0c575f5ffd5b50565b5f81359050610b1d81610af9565b92915050565b610b2c81610a1e565b8114610b36575f5ffd5b50565b5f81359050610b4781610b23565b92915050565b5f5f5f5f5f5f60c08789031215610b6757610b6661097d565b5b5f610b7489828a01610b0f565b9650506020610b8589828a01610b39565b9550506040610b9689828a01610b0f565b9450506060610ba789828a01610b0f565b9350506080610bb889828a01610b39565b92505060a0610bc989828a01610b39565b9150509295509295509295565b5f602082019050610be95f830184610a50565b92915050565b5f82825260208201905092915050565b7f4e6f7420746865207377617020696e69746961746f72000000000000000000005f82015250565b5f610c33601683610bef565b9150610c3e82610bff565b602082019050919050565b5f6020820190508181035f830152610c6081610c27565b9050919050565b7f53776170206973206e6f742061637469766500000000000000000000000000005f82015250565b5f610c9b601283610bef565b9150610ca682610c67565b602082019050919050565b5f6020820190508181035f830152610cc881610c8f565b9050919050565b7f546f6b656e7320616c7265616479206465706f736974656400000000000000005f82015250565b5f610d03601883610bef565b9150610d0e82610ccf565b602082019050919050565b5f6020820190508181035f830152610d3081610cf7565b9050919050565b7f53776170206861732065787069726564000000000000000000000000000000005f82015250565b5f610d6b601083610bef565b9150610d7682610d37565b602082019050919050565b5f6020820190508181035f830152610d9881610d5f565b9050919050565b5f606082019050610db25f830186610a0f565b610dbf6020830185610a0f565b610dcc6040830184610a27565b949350505050565b610ddd81610a36565b8114610de7575f5ffd5b50565b5f81519050610df881610dd4565b92915050565b5f60208284031215610e1357610e1261097d565b5b5f610e2084828501610dea565b91505092915050565b7f546f6b656e207472616e73666572206661696c656400000000000000000000005f82015250565b5f610e5d601583610bef565b9150610e6882610e29565b602082019050919050565b5f6020820190508181035f830152610e8a81610e51565b9050919050565b5f602082019050610ea45f830184610a27565b92915050565b7f496e76616c696420746f6b656e206164647265737300000000000000000000005f82015250565b5f610ede601583610bef565b9150610ee982610eaa565b602082019050919050565b5f6020820190508181035f830152610f0b81610ed2565b9050919050565b7f416d6f756e74206d7573742062652067726561746572207468616e20300000005f82015250565b5f610f46601d83610bef565b9150610f5182610f12565b602082019050919050565b5f6020820190508181035f830152610f7381610f3a565b9050919050565b7f496e76616c696420726563656976696e672061646472657373000000000000005f82015250565b5f610fae601983610bef565b9150610fb982610f7a565b602082019050919050565b5f6020820190508181035f830152610fdb81610fa2565b9050919050565b7f496e76616c69642064657374696e6174696f6e20746f6b656e206164647265735f8201527f7300000000000000000000000000000000000000000000000000000000000000602082015250565b5f61103c602183610bef565b915061104782610fe2565b604082019050919050565b5f6020820190508181035f83015261106981611030565b9050919050565b7f457870656374656420616d6f756e74206d7573742062652067726561746572205f8201527f7468616e20300000000000000000000000000000000000000000000000000000602082015250565b5f6110ca602683610bef565b91506110d582611070565b604082019050919050565b5f6020820190508181035f8301526110f7816110be565b9050919050565b7f54696d656c6f636b206d75737420626520696e207468652066757475726500005f82015250565b5f611132601e83610bef565b915061113d826110fe565b602082019050919050565b5f6020820190508181035f83015261115f81611126565b9050919050565b5f8160601b9050919050565b5f61117c82611166565b9050919050565b5f61118d82611172565b9050919050565b6111a56111a0826109fe565b611183565b82525050565b5f819050919050565b6111c56111c082610a1e565b6111ab565b82525050565b5f6111d6828b611194565b6014820191506111e6828a611194565b6014820191506111f682896111b4565b6020820191506112068288611194565b6014820191506112168287611194565b60148201915061122682866111b4565b60208201915061123682856111b4565b60208201915061124682846111b4565b6020820191508190509998505050505050505050565b5f60c08201905061126f5f830189610a0f565b61127c6020830188610a27565b6112896040830187610a0f565b6112966060830186610a0f565b6112a36080830185610a27565b6112b060a0830184610a27565b97965050505050505056fea264697066735822122028e5cb2c3e27c8110fd1ae15db5de675492a63660282082662247168924a07cf64736f6c634300081c0033","linkReferences":{}},"methodIdentifiers":{"depositTokens(bytes32)":"5b676b77","initiateSwap(address,uint256,address,address,uint256,uint256)":"bc1a350d","swapRequests(bytes32)":"3e029427"},"id":1}