{"abi":[{"type":"function","name":"completeSwap","inputs":[{"name":"_swapId","type":"bytes32","internalType":"bytes32"}],"outputs":[],"stateMutability":"nonpayable"},{"type":"function","name":"depositTokens","inputs":[{"name":"_swapId","type":"bytes32","internalType":"bytes32"}],"outputs":[],"stateMutability":"nonpayable"},{"type":"function","name":"initiateSwap","inputs":[{"name":"_tokenAddress","type":"address","internalType":"address"},{"name":"_amount","type":"uint256","internalType":"uint256"},{"name":"_receivingAddress","type":"address","internalType":"address"},{"name":"_destinationTokenAddress","type":"address","internalType":"address"},{"name":"_expectedAmount","type":"uint256","internalType":"uint256"},{"name":"_timelock","type":"uint256","internalType":"uint256"}],"outputs":[{"name":"","type":"bytes32","internalType":"bytes32"}],"stateMutability":"nonpayable"},{"type":"function","name":"swapRequests","inputs":[{"name":"","type":"bytes32","internalType":"bytes32"}],"outputs":[{"name":"initiator","type":"address","internalType":"address"},{"name":"tokenAddress","type":"address","internalType":"address"},{"name":"amount","type":"uint256","internalType":"uint256"},{"name":"receivingAddress","type":"address","internalType":"address"},{"name":"destinationTokenAddress","type":"address","internalType":"address"},{"name":"expectedAmount","type":"uint256","internalType":"uint256"},{"name":"timelock","type":"uint256","internalType":"uint256"},{"name":"isActive","type":"bool","internalType":"bool"},{"name":"isDeposited","type":"bool","internalType":"bool"},{"name":"swapId","type":"bytes32","internalType":"bytes32"}],"stateMutability":"view"},{"type":"event","name":"SwapCancelled","inputs":[{"name":"swapId","type":"bytes32","indexed":true,"internalType":"bytes32"},{"name":"initiator","type":"address","indexed":true,"internalType":"address"}],"anonymous":false},{"type":"event","name":"SwapCompleted","inputs":[{"name":"swapId","type":"bytes32","indexed":true,"internalType":"bytes32"},{"name":"initiator","type":"address","indexed":true,"internalType":"address"}],"anonymous":false},{"type":"event","name":"SwapInitiated","inputs":[{"name":"swapId","type":"bytes32","indexed":true,"internalType":"bytes32"},{"name":"initiator","type":"address","indexed":true,"internalType":"address"},{"name":"tokenAddress","type":"address","indexed":false,"internalType":"address"},{"name":"amount","type":"uint256","indexed":false,"internalType":"uint256"},{"name":"receivingAddress","type":"address","indexed":false,"internalType":"address"},{"name":"destinationTokenAddress","type":"address","indexed":false,"internalType":"address"},{"name":"expectedAmount","type":"uint256","indexed":false,"internalType":"uint256"},{"name":"timelock","type":"uint256","indexed":false,"internalType":"uint256"}],"anonymous":false},{"type":"event","name":"TokensDeposited","inputs":[{"name":"swapId","type":"bytes32","indexed":true,"internalType":"bytes32"},{"name":"initiator","type":"address","indexed":true,"internalType":"address"},{"name":"amount","type":"uint256","indexed":false,"internalType":"uint256"}],"anonymous":false},{"type":"event","name":"TokensWithdrawn","inputs":[{"name":"swapId","type":"bytes32","indexed":true,"internalType":"bytes32"},{"name":"initiator","type":"address","indexed":true,"internalType":"address"},{"name":"amount","type":"uint256","indexed":false,"internalType":"uint256"}],"anonymous":false}],"bytecode":{"object":"0x6080604052348015600e575f5ffd5b506114ff8061001c5f395ff3fe608060405234801561000f575f5ffd5b506004361061004a575f3560e01c80633e0294271461004e5780635b676b7714610087578063bc1a350d146100a3578063c3a74c5d146100d3575b5f5ffd5b61006860048036038101906100639190610b5a565b6100ef565b60405161007e9a99989796959493929190610c05565b60405180910390f35b6100a1600480360381019061009c9190610b5a565b6101d3565b005b6100bd60048036038101906100b89190610cf3565b6104ba565b6040516100ca9190610d7c565b60405180910390f35b6100ed60048036038101906100e89190610b5a565b6109a4565b005b5f602052805f5260405f205f91509050805f015f9054906101000a900473ffffffffffffffffffffffffffffffffffffffff1690806001015f9054906101000a900473ffffffffffffffffffffffffffffffffffffffff1690806002015490806003015f9054906101000a900473ffffffffffffffffffffffffffffffffffffffff1690806004015f9054906101000a900473ffffffffffffffffffffffffffffffffffffffff1690806005015490806006015490806007015f9054906101000a900460ff16908060070160019054906101000a900460ff1690806008015490508a565b5f5f5f8381526020019081526020015f2090503373ffffffffffffffffffffffffffffffffffffffff16815f015f9054906101000a900473ffffffffffffffffffffffffffffffffffffffff1673ffffffffffffffffffffffffffffffffffffffff1614610276576040517f08c379a000000000000000000000000000000000000000000000000000000000815260040161026d90610def565b60405180910390fd5b806007015f9054906101000a900460ff166102c6576040517f08c379a00000000000000000000000000000000000000000000000000000000081526004016102bd90610e57565b60405180910390fd5b8060070160019054906101000a900460ff1615610318576040517f08c379a000000000000000000000000000000000000000000000000000000000815260040161030f90610ebf565b60405180910390fd5b8060060154421061035e576040517f08c379a000000000000000000000000000000000000000000000000000000000815260040161035590610f27565b60405180910390fd5b5f816001015f9054906101000a900473ffffffffffffffffffffffffffffffffffffffff1690508073ffffffffffffffffffffffffffffffffffffffff166323b872dd333085600201546040518463ffffffff1660e01b81526004016103c693929190610f45565b6020604051808303815f875af11580156103e2573d5f5f3e3d5ffd5b505050506040513d601f19601f820116820180604052508101906104069190610fa4565b610445576040517f08c379a000000000000000000000000000000000000000000000000000000000815260040161043c90611019565b60405180910390fd5b60018260070160016101000a81548160ff0219169083151502179055503373ffffffffffffffffffffffffffffffffffffffff16837fa5acfcde5118075b17c34a71ac1feff954a6696141900041d1da05095063ae6584600201546040516104ad9190611037565b60405180910390a3505050565b5f5f73ffffffffffffffffffffffffffffffffffffffff168773ffffffffffffffffffffffffffffffffffffffff1603610529576040517f08c379a00000000000000000000000000000000000000000000000000000000081526004016105209061109a565b60405180910390fd5b5f861161056b576040517f08c379a000000000000000000000000000000000000000000000000000000000815260040161056290611102565b60405180910390fd5b5f73ffffffffffffffffffffffffffffffffffffffff168573ffffffffffffffffffffffffffffffffffffffff16036105d9576040517f08c379a00000000000000000000000000000000000000000000000000000000081526004016105d09061116a565b60405180910390fd5b5f73ffffffffffffffffffffffffffffffffffffffff168473ffffffffffffffffffffffffffffffffffffffff1603610647576040517f08c379a000000000000000000000000000000000000000000000000000000000815260040161063e906111f8565b60405180910390fd5b5f8311610689576040517f08c379a000000000000000000000000000000000000000000000000000000000815260040161068090611286565b60405180910390fd5b4282116106cb576040517f08c379a00000000000000000000000000000000000000000000000000000000081526004016106c2906112ee565b60405180910390fd5b5f33888888888888426040516020016106eb989796959493929190611371565b6040516020818303038152906040528051906020012090505f6040518061014001604052803373ffffffffffffffffffffffffffffffffffffffff1681526020018a73ffffffffffffffffffffffffffffffffffffffff1681526020018981526020018873ffffffffffffffffffffffffffffffffffffffff1681526020018773ffffffffffffffffffffffffffffffffffffffff1681526020018681526020018581526020016001151581526020015f15158152602001838152509050805f5f8481526020019081526020015f205f820151815f015f6101000a81548173ffffffffffffffffffffffffffffffffffffffff021916908373ffffffffffffffffffffffffffffffffffffffff1602179055506020820151816001015f6101000a81548173ffffffffffffffffffffffffffffffffffffffff021916908373ffffffffffffffffffffffffffffffffffffffff160217905550604082015181600201556060820151816003015f6101000a81548173ffffffffffffffffffffffffffffffffffffffff021916908373ffffffffffffffffffffffffffffffffffffffff1602179055506080820151816004015f6101000a81548173ffffffffffffffffffffffffffffffffffffffff021916908373ffffffffffffffffffffffffffffffffffffffff16021790555060a0820151816005015560c0820151816006015560e0820151816007015f6101000a81548160ff0219169083151502179055506101008201518160070160016101000a81548160ff02191690831515021790555061012082015181600801559050503373ffffffffffffffffffffffffffffffffffffffff16827f9051f2de2060d4362bdcb40b0d5074fa38c8d432c7f3c86eecce900d43a296128b8b8b8b8b8b60405161098d96959493929190611402565b60405180910390a381925050509695505050505050565b5f5f5f8381526020019081526020015f209050806007015f9054906101000a900460ff16610a07576040517f08c379a00000000000000000000000000000000000000000000000000000000081526004016109fe90610e57565b60405180910390fd5b8060070160019054906101000a900460ff16610a58576040517f08c379a0000000000000000000000000000000000000000000000000000000008152600401610a4f906114ab565b60405180910390fd5b80600601544210610a9e576040517f08c379a0000000000000000000000000000000000000000000000000000000008152600401610a9590610f27565b60405180910390fd5b5f816007015f6101000a81548160ff021916908315150217905550805f015f9054906101000a900473ffffffffffffffffffffffffffffffffffffffff1673ffffffffffffffffffffffffffffffffffffffff16827f0625e047e273118a71cca3f0dd73a68d97dd99585ffdee4b3f86670fe113f13d60405160405180910390a35050565b5f5ffd5b5f819050919050565b610b3981610b27565b8114610b43575f5ffd5b50565b5f81359050610b5481610b30565b92915050565b5f60208284031215610b6f57610b6e610b23565b5b5f610b7c84828501610b46565b91505092915050565b5f73ffffffffffffffffffffffffffffffffffffffff82169050919050565b5f610bae82610b85565b9050919050565b610bbe81610ba4565b82525050565b5f819050919050565b610bd681610bc4565b82525050565b5f8115159050919050565b610bf081610bdc565b82525050565b610bff81610b27565b82525050565b5f61014082019050610c195f83018d610bb5565b610c26602083018c610bb5565b610c33604083018b610bcd565b610c40606083018a610bb5565b610c4d6080830189610bb5565b610c5a60a0830188610bcd565b610c6760c0830187610bcd565b610c7460e0830186610be7565b610c82610100830185610be7565b610c90610120830184610bf6565b9b9a5050505050505050505050565b610ca881610ba4565b8114610cb2575f5ffd5b50565b5f81359050610cc381610c9f565b92915050565b610cd281610bc4565b8114610cdc575f5ffd5b50565b5f81359050610ced81610cc9565b92915050565b5f5f5f5f5f5f60c08789031215610d0d57610d0c610b23565b5b5f610d1a89828a01610cb5565b9650506020610d2b89828a01610cdf565b9550506040610d3c89828a01610cb5565b9450506060610d4d89828a01610cb5565b9350506080610d5e89828a01610cdf565b92505060a0610d6f89828a01610cdf565b9150509295509295509295565b5f602082019050610d8f5f830184610bf6565b92915050565b5f82825260208201905092915050565b7f4e6f7420746865207377617020696e69746961746f72000000000000000000005f82015250565b5f610dd9601683610d95565b9150610de482610da5565b602082019050919050565b5f6020820190508181035f830152610e0681610dcd565b9050919050565b7f53776170206973206e6f742061637469766500000000000000000000000000005f82015250565b5f610e41601283610d95565b9150610e4c82610e0d565b602082019050919050565b5f6020820190508181035f830152610e6e81610e35565b9050919050565b7f546f6b656e7320616c7265616479206465706f736974656400000000000000005f82015250565b5f610ea9601883610d95565b9150610eb482610e75565b602082019050919050565b5f6020820190508181035f830152610ed681610e9d565b9050919050565b7f53776170206861732065787069726564000000000000000000000000000000005f82015250565b5f610f11601083610d95565b9150610f1c82610edd565b602082019050919050565b5f6020820190508181035f830152610f3e81610f05565b9050919050565b5f606082019050610f585f830186610bb5565b610f656020830185610bb5565b610f726040830184610bcd565b949350505050565b610f8381610bdc565b8114610f8d575f5ffd5b50565b5f81519050610f9e81610f7a565b92915050565b5f60208284031215610fb957610fb8610b23565b5b5f610fc684828501610f90565b91505092915050565b7f546f6b656e207472616e73666572206661696c656400000000000000000000005f82015250565b5f611003601583610d95565b915061100e82610fcf565b602082019050919050565b5f6020820190508181035f83015261103081610ff7565b9050919050565b5f60208201905061104a5f830184610bcd565b92915050565b7f496e76616c696420746f6b656e206164647265737300000000000000000000005f82015250565b5f611084601583610d95565b915061108f82611050565b602082019050919050565b5f6020820190508181035f8301526110b181611078565b9050919050565b7f416d6f756e74206d7573742062652067726561746572207468616e20300000005f82015250565b5f6110ec601d83610d95565b91506110f7826110b8565b602082019050919050565b5f6020820190508181035f830152611119816110e0565b9050919050565b7f496e76616c696420726563656976696e672061646472657373000000000000005f82015250565b5f611154601983610d95565b915061115f82611120565b602082019050919050565b5f6020820190508181035f83015261118181611148565b9050919050565b7f496e76616c69642064657374696e6174696f6e20746f6b656e206164647265735f8201527f7300000000000000000000000000000000000000000000000000000000000000602082015250565b5f6111e2602183610d95565b91506111ed82611188565b604082019050919050565b5f6020820190508181035f83015261120f816111d6565b9050919050565b7f457870656374656420616d6f756e74206d7573742062652067726561746572205f8201527f7468616e20300000000000000000000000000000000000000000000000000000602082015250565b5f611270602683610d95565b915061127b82611216565b604082019050919050565b5f6020820190508181035f83015261129d81611264565b9050919050565b7f54696d656c6f636b206d75737420626520696e207468652066757475726500005f82015250565b5f6112d8601e83610d95565b91506112e3826112a4565b602082019050919050565b5f6020820190508181035f830152611305816112cc565b9050919050565b5f8160601b9050919050565b5f6113228261130c565b9050919050565b5f61133382611318565b9050919050565b61134b61134682610ba4565b611329565b82525050565b5f819050919050565b61136b61136682610bc4565b611351565b82525050565b5f61137c828b61133a565b60148201915061138c828a61133a565b60148201915061139c828961135a565b6020820191506113ac828861133a565b6014820191506113bc828761133a565b6014820191506113cc828661135a565b6020820191506113dc828561135a565b6020820191506113ec828461135a565b6020820191508190509998505050505050505050565b5f60c0820190506114155f830189610bb5565b6114226020830188610bcd565b61142f6040830187610bb5565b61143c6060830186610bb5565b6114496080830185610bcd565b61145660a0830184610bcd565b979650505050505050565b7f546f6b656e73206e6f74206465706f73697465640000000000000000000000005f82015250565b5f611495601483610d95565b91506114a082611461565b602082019050919050565b5f6020820190508181035f8301526114c281611489565b905091905056fea264697066735822122023391c2a9fecc762cbd2fbb8068ebea3eb4f1599ffec1877cc276c230825863b64736f6c634300081c0033","linkReferences":{}},"methodIdentifiers":{"completeSwap(bytes32)":"c3a74c5d","depositTokens(bytes32)":"5b676b77","initiateSwap(address,uint256,address,address,uint256,uint256)":"bc1a350d","swapRequests(bytes32)":"3e029427"},"id":3}